:03000000020006F5
:0A005F00E4F508F509F50A020003B4
:030003000200698F
:20006900E50A04F50AE59030E20B8508828509831200AF80F0E50A20E005439008800574DA
:2000890008F452900508E4B5080205099001F41201267464B50806E4B50902800280C1E417
:2000A900F508F50980BAAE82AF83750B0A750C00C007C0061201F6AC82AD83D006D007757F
:2000C9000B0A750C008E828F83C005C0041201C0AE82AF83D004D0058C828D83C007C0064D
:2000E9001201137401F45290439002900032120126D006D0078E828F831201134390017479
:2001090002F45290900064020126AE82AF83EE2432F582EF3402F583E493F5A022AE82AF1A
:20012900837C007D00C3EC9EED9F50147AFA7B001ABAFF011BEA4B70F70CBC00E80D80E561
:010149002293
:200232003F065B4F666D7D077F6F0000010002000300040005000600070000000100020059
:020252000300A7
:06003500E478FFF6D8FD9F
:200013007900E94400601B7A00900254780175A000E493F2A308B8000205A0D9F4DAF2753D
:02003300A0FF2C
:20014A00E50B450C60467A01E50B25E0F50BE50C334012F50CE582950BE583950C40030A6A
:20016A0080E6C3E50C13F50CE50B13F50BC3E582950BF5F0E583950C4005F58385F082C315
:0D018A00E50C13F50CE50B13F50BDAE12283
:20003B007800E84400600A790175A000E4F309D8FC7800E84400600C7900900001E4F0A3C3
:04005B00D8FCD9FAFA
:200197007A10E4FBFCE58225E0F582E58333F583EB33FBEC33FCEB950BF5F0EC950C400676
:0901B700FCABF0438201DADD2209
:0D00060075810C12022EE5826003020003DA
:2001C000C2D5E58330E70DD2D5E4C39582F582E49583F583E50C30E70BE4C3950BF50BE46E
:1601E000950CF50C12014A30D50BE4C39582F582E49583F583222F
:2001F600C2D5E58330E70DD2D5E4C39582F582E49583F583E50C30E70DB2D5E4C3950BF59E
:180216000BE4950CF50C12019730D50BE4C39582F582E49583F58322BA
:04022E0075820022B3
:00000001FF
