:03000000020006F5
:03005F0002000399
:0300030002006296
:100062004390019000321200765390FE90003212BB
:10007200007680ECAE82AF837C007D00C3EC9EED07
:100082009F50147AE87B031ABAFF011BEA4B70F700
:080092000CBC00E80D80E52222
:06003500E478FFF6D8FD9F
:100013007900E94400601B7A0090009E780175A086
:1000230000E493F2A308B8000205A0D9F4DAF2754C
:02003300A0FF2C
:10003B007800E84400600A790175A000E4F309D860
:10004B00FC7800E84400600C7900900001E4F0A318
:04005B00D8FCD9FAFA
:0D00060075810712009AE582600302000375
:04009A007582002249
:00000001FF
